:10200000C8200020252100002121000021210000FE
:1020100000000000000000000000000000000000C0
:10202000000000000000000000000000212100006E
:10203000000000000000000021210000212100001C
:102040002121000021210000212100002121000088
:10205000992B0000212100002121000021210000F6
:102060002121000021210000212100004928000039
:102070002121000021210000212100002121000058
:1020800021210000212100009D2C000021210000C1
:1020900021210000000000000000000021210000BC
:1020A0002121000021210000212100002121000028
:1020B0000000000010B5064C2378002B07D1054B1B
:1020C000002B02D0044800E000BF0123237010BDA4
:1020D0000000002000000000C02E0000084B10B5DA
:1020E000002B03D00749084800E000BF07480368F9
:1020F000002B00D110BD064B002BFBD09847F9E711
:102100000000000004000020C02E0000C02E0000CF
:102110000000000010B5014B984710BDA12200003F
:10212000FEE70000F8B52A4A2A4B9A4211D01A005D
:10213000294B9A420DD2294A03339B1A9B0801333B
:102140009B000022234822498C58845004329A4232
:10215000FAD1234A234B9A420AD2D34321495B182E
:1021600003218B4304339B18002102C29342FCD10C
:102170001D4AFF211D4B8B439360FD3990235B006B
:102180001B4AD1501B4AD3780325AB430224234377
:10219000D370D3780C27BB4308263343D370164B38
:1021A000987B30229043202210439873997BB94347
:1021B000314399739A7BAA4322439A730F4A536817
:1021C00080210B4353600E4B98470E4B9847FEE718
:1021D000C02E0000000000200000002004000020AD
:1021E00000000020C800002000ED00E000200000FA
:1021F0000070004100500041004800410040004193
:10220000D92D000071290000044A136A10210B43E4
:102210001362034A034B5A807047C04600040040D3
:1022200016400000000C004030B50E4B4A22995C6D
:102230000125A94301242143C9B299543520195CD1
:102240003B3A91430C3A114319544B215A5CAA432F
:102250002243D2B25A541A5C3C390A4021310A4313
:102260001A5430BD0044004110B582B0064B984767
:10227000002300931033054A05490648064CA04741
:10228000064B984702B010BD092200001C00002038
:102290000010004234000020B52400002922000074
:1022A00010B5024B9847024B984710BDA526000079
:1022B00069220000EFF31083036072B6BFF35F8FF3
:1022C0007047BFF35F8F036883F310887047000087
:1022D00010B5044B1C68044B984701002000034BC9
:1022E000984710BD2C000020812600009D2600008C
:1022F00010B5083800230363436A002B00D09847C9
:1023000010BD10B5083800230363C36A002B00D04A
:10231000984710BD10B504002C30044B9847236A31
:10232000083C002B01D02000984710BD1D2600005E
:1023300070B504000E00150000281DD000291DD026
:102340001000431E98414622FF320F490F4B984719
:102350004423E25A0833E35A9A4211D1A6644C232B
:10236000E5520022083BE252433B23632000083041
:10237000074B9847280070BD0020E4E70020E2E703
:102380001C204042F7E7C046202E000079250000BF
:102390003928000070B5040001000839838F4C22F1
:1023A0008A5A9A420CD00A00896C5D1C442015524E
:1023B000C95C2000044B98472000044B984770BD2F
:1023C000034B9847FBE7C04631280000392800003E
:1023D00041280000F0B5CE46474680B585B00500DF
:1023E0000E001700002815D0002913D0002A2AD18A
:1023F000B122520029490020294B984703A8294BB4
:10240000984728003430284B984703A8274B984713
:1024100000253CE0B122520020490020204B984783
:1024200003A8204B98473435280001951E4B984748
:10243000804603A81D4B984700254346002B26D015
:10244000002F16D123E0B122520014490120144B71
:10245000984703A8134B9847343528000195124B31
:102460009847804603A8114B984743460025002B08
:102470000DD000240E4B9946651CADB23119019860
:10248000C8470134444502D2A3B29F42F4D8280081
:1024900005B00CBC90469946F0BDC046202E000009
:1024A00079250000B52200005D260000C32200004F
:1024B000D5250000F8B504000D0016001F00002807
:1024C00026D0002926D0002A26D01800431E984185
:1024D00044221449144B9847200034303A0031000C
:1024E000124B9847002819D1200008302900104BC2
:1024F000984700280BD10F4B63600F4B23600F4BA5
:10250000A3600F4BE3600F4B23610F4B6361F8BD7A
:102510000020DDE70020DBE70020D9E70D20404266
:10252000F5E7C046202E0000792500008125000037
:10253000A1270000D52300003123000095230000CF
:1025400015230000F12200000323000010B5040051
:10255000431E9841C0B26B220449054B98472000A6
:102560000830044B9847002010BDC046202E0000C4
:10257000792500001D280000002800D100BE70470A
:1025800070B504000E00150000280BD0002918D0EB
:102590000120002A07D132220C4900200C4B984719
:1025A0006B1E07E0002032220849094B98476B1E3A
:1025B0002B4208D163600023A360E3602660002003
:1025C00070BD0020EFE70D204042F9E7402E0000EB
:1025D0007925000070B504000D00002815D0080012
:1025E000431E9841C0B24A220A490B4B9847A36840
:1025F000E2689A420BD0626813402268D35C2B7069
:10260000A3680133A360002070BD0020EBE70A201F
:102610004042F9E7402E00007925000070B5040023
:102620000D00431E9841C0B25B220A490A4B9847ED
:102630006368E26813402268D554E3686168A26861
:102640009A1A8A4201D9591AA1600133E360002025
:1026500070BDC046402E00007925000010B5040072
:10266000431E9841C0B271220349044B9847E06869
:10267000A368C01A10BDC046402E00007925000096
:1026800010B50300642058432C30FF3096214900D8
:10269000014B984710BDC046C12C00000139FDD840
:1026A0007047000010B5074B5A685A60064B9847B0
:1026B000064B98470820064CA047064B9847F72042
:1026C000A04710BD00400041FD260000B5280000D5
:1026D000D9260000FD280000C3070BD58022520038
:1026E000054B9A601A005378DB09FCD18322520211
:1026F000014B5A607047C046000C0040064B1A7AE6
:10270000D2B21A725A7AD2B25A729A7AD2B29A72F1
:10271000DA7AD2B2DA7270470004004010B50400D1
:102720001A4BC3189B0ADBB2022B05D09A229200E7
:1027300017490020174B98470122E3691A42FCD140
:102740000322E3691A42FCD123689B071BD40122B0
:10275000E3691A42FCD12368012213432360E36931
:102760001A42FCD10322E3691A42FCD10A4B2360CE
:10277000C0239B026360094BA3810023A373302213
:10278000A354002010BD11204042FBE700F8FFBD1C
:10279000642E00007925000004003140ADD8FFFF11
:1027A00070B505000C00431E9841C0B2CE221449FA
:1027B000144B98472000144B9847002800D070BD58
:1027C000AC61124B9C4217D0114B9C466444A40A46
:1027D0000934E3B22206F2D41F221A4001239340A7
:1027E0000C4A80215350BFF34F8FBFF36F8F0131DD
:1027F000FF3153501360E2E7074B1D600B23EBE7FB
:10280000642E0000792500001D2700000010004202
:1028100000F8FFBD00E100E03000002082690321E4
:10282000D3691942FCD1136802210B43136070472E
:10283000836989B219857047836901229A75704747
:10284000836902229A75704710B5194B186884691C
:10285000237EDB0702D5A37DDB070FD4237E9B07F6
:1028600002D5A37D9B070ED4237E5B0715D5628B13
:1028700037231A420CD00833638310BD012323751C
:1028800003689847F9E70223237583689847F4E7BC
:10289000218DC9B243689847EFE7237EDB09ECD06E
:1028A00080232376C3689847638B9BB26383E4E7F6
:1028B0003000002010B50E4B1A6A186A0D491140FD
:1028C000800F80070C4C2043014319629969022054
:1028D00001439961D202D20E1A7719000822CB68FF
:1028E0001A42FCD0024A136A80210B43136210BDC6
:1028F000000800400000FF0F02030000024A936935
:1029000002218B439361704700080040064A100083
:10291000403000210023D1540133082BFBD1083271
:102920008242F7D17047C0468400002030B5C20013
:102930000D4B9B185B5C002B00D030BD8B18DDB2BB
:102940000A4C0122237E1342FCD0ADB2074A158502
:1029500014000222237E1342FCD0C000024B181840
:1029600001234354E9E7C0468400002000100042E0
:1029700070B5734B9847734B04229A6010259D6085
:102980001C329A60802158586F4A02435A50196885
:102990006E48014019601A6902401A615120195CA1
:1029A00007221143C9B219540230195C1143C9B24C
:1029B00019540338195C1143C9B219540230195C17
:1029C0001143C9B219540B38195C1143C9B21954D7
:1029D0000D30195C1143C9B219540538195C114303
:1029E000C9B219540730195C0A43D2B21A54584973
:1029F000584B0B80584A106880231B010343136017
:102A0000564B1A88564802431A805A7B10200243BC
:102A10005A73F42252001A83524C8023DB02236043
:102A2000C42080002358504A1A40C0231B0413437B
:102A300023504E4B0B804E4A136840210B431360CA
:102A40004C4B4D4ADA6099694C4A0A439A61D969FC
:102A5000902212060A43DA611A7802210A431A7098
:102A60004748484B98470022474B1A602560C122CF
:102A70009200A358FF218B433F390B43A350C2213F
:102A8000890063581B021B0A8022120613436350FD
:102A90003E4B98473C4C3E4E250012E0072B09D890
:102AA0009B00F3589F46274B04225A61802149001E
:102AB000943299507D20374B9847334A136801333D
:102AC00013602368072BE9DD00232B601D4B802159
:102AD000C90094229950903A9A61EBE7194B8021F2
:102AE0004900942299500131FF3104329950E1E7B5
:102AF000144B8021890094229950843A9A61D9E735
:102B0000104B10225A6110329A61D3E70D4B2022EC
:102B10005A61042178329950CCE70A4B042194225F
:102B200099508021090104329950C3E7054B802157
:102B30000901942299508021C90004329950B9E7C3
:102B40001521000000440041040F00007F7FA0FF1A
:102B5000020C00401B40000020040040002C0042FA
:102B60002217000000E100E0FFFF00FF0540000029
:102B70001804004000180040DF800000999909996E
:102B8000340000204D250000C40000200D29000065
:102B9000802E0000D122000010B53D4B1B699B0721
:102BA0001CD43B4B1B691B0723D4394B1B69DB0728
:102BB0002AD4374B1B695B0731D4354B1B691B0685
:102BC00038D4334B1B69DB063FD4314B1B691B04E4
:102BD00046D42F4B1B695B064ED410BD2D4B187885
:102BE00000212D4B98472A4A136902210B43136198
:102BF000D7E7284B18780121274B9847244A1369B7
:102C000008210B431361D0E7224B18780221224B95
:102C100098471F4A136901210B431361C9E71D4BF4
:102C2000187803211C4B9847194A136904210B4358
:102C30001361C2E7174B18780421174B9847144AC1
:102C4000136980210B431361BBE7124B18780521F0
:102C5000114B98470E4A136910210B431361B4E7D7
:102C60000C4B187806210C4B9847094A11698023B0
:102C70001B020B431361ACE7064B18780721064B88
:102C80009847034A136940210B431361A5E7C046E7
:102C900000180040C40000202D29000010B5064B8C
:102CA0009B7BDB0600D410BD044B9847024A937B04
:102CB00010210B439373F6E7002C00420D2900000E
:102CC000002243088B4274D303098B425FD3030A6B
:102CD0008B4244D3030B8B4228D3030C8B420DD37E
:102CE000FF22090212BA030C8B4202D3121209020C
:102CF00065D0030B8B4219D300E0090AC30B8B424A
:102D000001D3CB03C01A5241830B8B4201D38B03F7
:102D1000C01A5241430B8B4201D34B03C01A52419C
:102D2000030B8B4201D30B03C01A5241C30A8B42DF
:102D300001D3CB02C01A5241830A8B4201D38B02CA
:102D4000C01A5241430A8B4201D34B02C01A52416E
:102D5000030A8B4201D30B02C01A5241CDD2C309E0
:102D60008B4201D3CB01C01A524183098B4201D35C
:102D70008B01C01A524143098B4201D34B01C01A47
:102D8000524103098B4201D30B01C01A5241C308BF
:102D90008B4201D3CB00C01A524183088B4201D32E
:102DA0008B00C01A524143088B4201D34B00C01A1A
:102DB0005241411A00D20146524110467047FFE786
:102DC00001B5002000F006F802BDC0460029F7D08A
:102DD00076E770477047C04670B500260C4D0D4C25
:102DE000641BA410A64209D1002600F059F80A4D30
:102DF0000A4C641BA410A64205D170BDB300EB5869
:102E000098470136EEE7B300EB5898470136F2E7F2
:102E1000AC2E0000AC2E0000AC2E0000B02E000046
:102E20002E2E2F68616C2F7372632F68616C5F7533
:102E3000736172745F6173796E632E6300000000CA
:102E40002E2E2F68616C2F7574696C732F737263EB
:102E50002F7574696C735F72696E676275666665FB
:102E6000722E63002E2E2F68706C2F736572636F45
:102E70006D2F68706C5F736572636F6D2E630000F9
:102E8000CC2A0000A62A0000DC2A0000F02A00005C
:102E9000002B00000C2B00001A2B00002C2B000034
:102EA000F8B5C046F8BC08BC9E467047DD2000005F
:102EB000F8B5C046F8BC08BC9E467047B520000077
:0400000300002000D9
:00000001FF
